:020000020000FC
:100000001DC571C01895189509946DC04AC0189502
:1000100052C018951895A9C0189518951895189557
:100020001895A3C01895697A40744042405B9FB60A
:100030008A9409F4E1E29FBE18959FB68A949FBE08
:10004000189520FD949A21FDAD9A22FDAB9A0000EF
:100050000000CBD020FD959A21FDAC9A22FDC09ADC
:10006000E6E3832C24BC1895A89518958F12E5CF4C
:10007000A89511FDE6CFE0916500852C20FD9598AF
:1000800021FDAC9822FDC09844BC27FD18950000C6
:1000900000C000C020FD949821FDAD9822FDAB98D2
:1000A00018959FB640916300415008F40E7F40932D
:1000B00063009FBE18959FB640916400439540939E
:1000C00064004F7019F4BB2019F0BA949FBE1895C4
:1000D00040916600439540936600409167004395C8
:1000E00040936700F3CF4CB55DB5829B0DC09FB6C2
:1000F0005A5659BD48BD42E045BF48E048BF9FBE83
:1001000018959FB604602DC098B693FCFACF9FB6A1
:100110003A0148B559B55659641A750A1CC040EAE7
:1001200064164FE0740660F04091820050918300A5
:10013000440F551F4395409382005093830011C094
:100140004091820050918300440F551F40938200DC
:100150005093830006C040E0641640E37406F8F252
:10016000106143E045BF9FBE189590E578ECAD98CF
:10017000959A17D0E1F7089594E674EBAB98AC9A92
:1001800010D0E1F7089598E770EA9498C09A09D0E2
:10019000E1F708959CE87CE8AB98959A02D0E1F7E6
:1001A0000895F2BF82B78032E8F3949AAD9AAB9A81
:1001B0009598AC98C09860E1F2BFA89582B7871770
:1001C000E8F36A95C9F79A95089500D000D000D059
:1001D0009FE060E1F2BF81E088BFA89588B780FF0B
:1001E000FDCF6A95B9F79A95A1F708958091880097
:1001F0009091890089569A4739F0C8E8D0E0E6E244
:1002000085918993C039E1F708958091600081BF9D
:100210000F7DC8E8D0E080E890E0A895E199FDCF97
:1002200067B760FDFACFC03981F09FBB8EBB0196E6
:10023000E09A6DB317F06993F0CF79917DBBF89494
:10024000E29A6713E19A7894E8CFC2DF8FEF81BF1B
:100250000895000C111CAA1C8A95D9F70895869F51
:10026000A12C969FA00CC11DDF1F879FA00CC11D54
:10027000DF1F979FC00DD11D089500C01F7680918C
:100280008300805848F090918200392F809381003C
:10029000F0938200F0938300F0938200F093830048
:1002A000C30180346BE5960718F0C3E1D6E003C0C4
:1002B000CC27DD2700C0C0937900D0937A0001FFDE
:1002C00003C082E0B82EB9C08CE0B816BF1E0895F6
:1002D000C3E07695679596958795CA95D1F7089569
:1002E00088E0082780918C0090918D0060918A00B1
:1002F00070918B0003FDECDF80937F009093800072
:10030000681B790B05D080937B0090937C00089547
:1003100080E09AE00196A8959F3F890721F0C4E20A
:10032000DAEF9DDFB9F70895F8948CB59DB560912B
:10033000640078B77894903872FD6F1FC09169009F
:10034000D0916A00A0906B008093690090936A003E
:1003500060936B0000906C0010906D0070916E00C7
:10036000C0936C00D0936D00A0926E00801991092B
:10037000670B7D2D763020F090386F0708F0177FDF
:1003800094306F0738F4186080E094E060E0D69411
:10039000C79409C070918100831797076F0718F4FD
:1003A0001860D694C79490386F07A3E1B6E0F8F0D0
:1003B000A3E0B1E27D01A0E8B9E0FF9F771B0AC08E
:1003C000771F001C111C78170906160618F0781BF9
:1003D000090A160AAA1FBB1FEE1CFA9489F7A095FA
:1003E000B095A33071E0B70710F4A3E0B1E07D0150
:1003F00080936F009093700060937100669597955D
:100400008795C0916900D0916A00A0906B0078E454
:1004100055D0C0937200D0937300A09274009031B5
:100420006F0718F02F7B6DD002C02064A5D014FD9B
:1004300025CFC0917900D0917A00CE15DF0508F064
:10044000E701CC15DD0508F0E60183E091E0C8176F
:10045000D90708F0CE01880F991FC816D90608F0F1
:100460006C0183E196E08C1B9D0B11F1209611F13C
:100470001D7F116016FF04C0880F991FCC0FDD1F70
:1004800068947AE29F1377E180329F0738F013FD7A
:1004900005C0E894409771E29F1377E1C09580957D
:1004A0001E01F8942C017093650027F97894089543
:1004B0001360E6CF1C7F76E36894F0CF879FC10D71
:1004C000DF1FAF1E979FC00DD11DAF1E679FD00DC0
:1004D000A11C089580916F0090917000609171004F
:1004E000C0917200D0917300A09074000895F2DF63
:1004F000C80FD91FA61EC80FD91FA61E02C0EADF4B
:10050000DDDF79B7072E7B7E79BF70E1F894DBBD24
:10051000CABD78BF8CB59DB57894016060916400C8
:1005200078B7903872FD6F1FC81BD90BA60AA0922E
:1005300063000AF40E7F09BE089526FFD8CF80918C
:100540006F0090917000C0917200D0917300C80F3D
:10055000D91FC80FD91F10C026FFD1CF80916F00BF
:1005600090917000C0917200D0917300879FC10D6F
:10057000DF1F979FC00DD11D70E1F894DBBDCABD90
:1005800078BF8CB59DB50160F09363007894C81B6B
:10059000D90B0AF40E7F0895279670E1F8948CB574
:1005A0009DB5C80FD91FDBBDCABD78BFA09263003F
:1005B00001607894089514FD61DE00FDFCCF08957C
:1005C000F5BD80E488BFE4E3949AAD9AAB9A959820
:1005D000AC98C0980895829BF09366008091660065
:1005E00085FF0895E0E0F894FCE185919491F0E0B6
:1005F000789401960297A8F3F894F7BBF4BBF1BB8B
:1006000088E181BDF1BD8091600081BFF9CA0024FD
:100610000FBEEFE5F4E0FEBFEDBF0292E036F0055D
:1006200009F4EEE1E015F005C1F781B780936000B1
:10063000A4B6F4BFF8BB89E387BB88E285BB88E337
:1006400084BB80E182BB80E381BB82E083BF81E029
:100650008EBDF5BD88E181BD88E081BDB9DDD5DD08
:10066000C5DD7894A0FAAF1226F47FDD85DD8BDD41
:100670001EC0A2FE04C087DD78DD006818C0A1FEA0
:1006800002C088DD14C0F894A3FE05C06EDD6DDDE8
:100690007ADD79DDFBCF99DD4A2D58E040FF6CDD36
:1006A00040FD78DD93DD46955A95C1F7F4CF83E29E
:1006B00096EB392F809381000D7F14DE84E588BF8F
:1006C00089BF83E085BF80E48BBFBB241B7EF09392
:1006D0006600F0936700A89514FD0AC07CDF809146
:1006E00067008837C1F78CE3809367004CDDF3CF58
:1006F000C4DDC0917900D0917A00209631F78AE06C
:10070000B81648F3812F847009F0FBBF2EDD2DDD74
:1007100041DD40DD3FDD0B7F53DF0D7FF093660051
:10072000F0936700A89514FD0CC0BB20D9F753DFE8
:10073000809167008E31B1F743DF4ADD24DD1CDD97
:10074000BBCF9CDDBB2071F3209609F4E7CF38DFE7
:1007500080B7886080BF3798C3E0D1E06E01026047
:10076000FED0F0937500F0937600F093770082E06E
:10077000B82E86E08093620081E08093610081E082
:1007800085BD17FD48C0EFD087E087B9AD9A10FD51
:100790009498C398E6D080E087B9F894287F2260C7
:1007A00065B3AB9A75B388B3C09898B38913AC9A04
:1007B0006713AD987894D7D086E087B9949A10FDE6
:1007C000AB98CFD087E087B9F894287F216065B3D4
:1007D000AD9A75B385B3AC9895B38913959A6713A1
:1007E00094987894C39ABFD080E087B9AB9A10FDF3
:1007F000AD98B7D086E087B9F894287F246062B3BB
:10080000949A72B382B3959892B38913C09A67137E
:10081000AB98789447C0A5D080E087B9F894287F3A
:10082000216065B3AB9A75B388B3C09898B3891348
:10083000959A671394987894C39A95D087E087B96E
:10084000AD9A10FDAB988DD086E087B9F894287FDB
:10085000226062B3949A72B382B3959892B389136B
:10086000AC9A6713AD9878947ED080E087B9AB9A44
:1008700010FD9498C39875D087E087B9F894287FC5
:10088000246065B3AD9A75B385B3AC9895B38913FD
:10089000C09A6713AB98789466D086E087B9949A2B
:1008A00010FDAD9880916100803010FF69F1E60184
:1008B000209659F18130C8F4839580936100A19608
:1008C00083E091E06091770070917600705E7093A4
:1008D000760021F4615FD1F0609377006F3068F0AB
:1008E0007C3058F080E490E008C01F7BF0937700E4
:1008F000F0937600E19683E196E0C817D90710F0EF
:100900006C013FCF6E013DCF07CF21CF59DE0D7F68
:100910005CDC5BDC3FDCB2DC2096D1F7CDCEE4E3DF
:1009200020FD949A21FDAD9A22FDAB9A9598AC9842
:10093000C09881E0809362005CC016FD08C0BC30A6
:1009400030F0BBE0AB1708F4AB2FF7DD45C0F093F8
:10095000610070917500715F16FD709375001064F1
:1009600048C01F7D01C0106280916200815050F02C
:100970008093620016FF18C0C0E0DFEFAF2E0CDEE0
:10098000A3E029C0E43309F4E6E316FD40C07BE1AF
:10099000E3DD11DE79E5E0DD00FFC1CF14FD6EDCA3
:1009A00068B1612765FDF8CFA0917000B09171002A
:1009B000B695A795B695A795A330BF0750F051F00F
:1009C000A033BF0708F0A0E3AC3020F073E3C4DD30
:1009D00002C0A3E0B2DDBA2F00FFAFCF14FD4EDCA2
:1009E00068B1612765FD03C0AB17AF1FF5CFAA95AE
:1009F00099F7C49A99DC16FFDEDDC49880916200F5
:100A00008F131E7FBF1208958F918F9185CEC0E006
:100A1000D0E070E0A72E80916100823030F47091B8
:100A2000750080E090E860E049DDB6DDC4DDC0E03F
:0E0A3000DCED75E0A72EB0DDAFEFCDCFE8CD49
:101C0000E4E0FFE5FEBFEDBF00E0ECEBFEE0C0E886
:101C1000D0E0A0E6B0E042E045BD5CEE539571F047
:101C200040EC04BD48BFA03619F0E8B6E6FC46C05B
:101C30008299F9CF04BD48BFE8B6E6FCE1C1829BBA
:101C4000FBCF04BD48BFE8B6E6FCE8CF8299FBCFE6
:101C500034B404BD48BFE8B6E6FCD2C1829BFBCFDA
:101C600024B4022C030C802C07940694402C069478
:101C70008008809420943094409460EE83E084BC8B
:101C800048BFE8B6E6FCBCC1829BFBCF84BC48BF22
:101C9000E8B6E6FCC3CF8299FBCF0894E8B6E6FC31
:101CA00023C0829BFBCFE8B6E6FCB8CF8299FBCF7E
:101CB0008894E8B6829BE6FC17C0FBCF43BC87E163
:101CC000929A8A9A34BC48BFE8B6E6FEFDCF929855
:101CD00024BC48BFE8B6E6FEFDCF8A9589F7C0E68A
:101CE000D0E060E081E00BC0679548F6815068F570
:101CF0005CEE0994CA17DB07D1F0699188E066951C
:101D0000929A34BC48BFE8B610F0E7FC02BBE6FE8E
:101D1000FACF929808F0929A24BC48BFE8B610F027
:101D2000E7FC02BBE6FEFACF8A9549F7E3CF929A29
:101D300034BC48BFC0E8D0E0A0E6B0E0E8B6E7FEBB
:101D4000FDCF8A9802BB6ACF80E060E898CFECEBC9
:101D5000FEE0C0E8D0E0F8CF009000000090000066
:101D60000090000000900000009000000090000033
:101D70000090000000900000000000006B3121F78F
:101D8000562E3796E1CF962E56263496DDCF762EF8
:101D900056263496D9CF662E56263496D5CF6E3039
:101DA000B1F656263596D0CF69935626CF3584E0C6
:101DB000D80768F681E0681A700A09F43C96C4CF27
:101DC0006511C5CFC0E8D0E0699199918991FD0175
:101DD0007BE170839182028372E073837EE074837F
:101DE0006583068317966130A1F48BE0838388E0D6
:101DF0008D93EF01ECEDFFE185918D93E43EE1F7EA
:101E0000FE01819161918627EA17FB07D9F78D932F
:101E10009ECF6D3151F5792F90E0039683839283A5
:101E200003970D938A95E9F789916991603380074B
:101E300094E0790779F460878991803059F4699149
:101E400060308EE131F0613083E919F0623087E073
:101E500009F482870D93D5CF8017900709F5D990A3
:101E6000C9905601AA0CBB1CCCCF6330E1F06230A4
:101E700041F2603131F2613121F2663069F3623151
:101E8000F1F1833F73E0970758F4643109F166314B
:101E900069F127966531C1F16331F9F10000000065
:101EA00080EC8683AECF90398FE071F0913982E07B
:101EB00059F092398AE041F0943982E329F0903860
:101EC00080E011F0913861F78D9383E0838399CF9F
:101ED00049D0EF01F5018FD076FDFDCF65916D936F
:101EE0000197E1F75F01FE010D938BCF3BD011E02D
:101EF0003ED06DB36D930197D9F70D9382CF47D044
:101F0000000080E092E0689416E06FEF0EF06991B7
:101F10002ED00197D1F7E89474CF8F7F61E07F01D5
:101F2000F5010990199068D032960297D1F70F0108
:101F3000F501500163E0E03C7FE1F70719F058D06C
:101F4000F7015FCF0BD065E009D061E107D0F8CF92
:101F500077B770FDFDCFE199FECF0895F9DF67BF38
:101F6000E8950895039692838383039708953AD062
:101F7000DFBACEBA0894C01ED01E762FE09A6DB399
:101F8000671312FF08957DBBE29A1CBB08957F0181
:101F9000E0E0FCE163E0E054F0402ED0E1F76F01B7
:101FA000F70108950000000000000000000000009C
:101FB0000000000000000000000000000000000021
:101FC000687474703A2F2F6769746875622E636F36
:101FD0006D2F73696D2D2F7467792F00415652490B
:101FE00053505F3277B770FDFDCFE199FECF089572
:101FF00003D065E001D061E1F5DF67BFE8950895A2
:00000001FF
